:10000000BBC60000E6C60000E4C60000E2C6000071
:10001000E0C60000DEC60000DCC60000DAC6000054
:10002000D8C60000D6C60000D4C60000D2C6000064
:10003000D0C60000CEC60000CCC60000CAC6000074
:10004000C8C600000C94C008C4C60000C2C60000A8
:10005000C0C60000BEC60000BCC600000C94191D3E
:10006000B8C600000C943B1F0C947F20B2C6000061
:10007000B0C60000AEC60000ACC60000AAC60000B4
:10008000A8C60000A6C60000A4C60000A2C60000C4
:100090000C947B1F0C94BE209CC600009AC60000E6
:1000A00098C6000096C6000094C6000092C60000E4
:1000B00090C600008EC600008CC600008AC60000F4
:1000C00088C6000086C6000084C600000C94BB1FD2
:1000D0000C94FD207EC600000C94FB1F0C943C2168
:1000E00078C6000024F404D9201BC40C5C0E9804CC
:1000F000C4095F0265077101F405F900FB04B30050
:1001000048048700C10369005803550003034500F4
:10011000BE023A008402310053022A00290225005F
:1001200004022000E4011C00C8011900AF011700FF
:100130009801140084011300710110006101100086
:1001400051010E0043010D0036010B002B010B0085
:1001500020010B00150109000C0109000301080032
:10016000FB000800F3000800EB000700E4000600B5
:10017000DE000600D8000600D2000600CC00050014
:10018000C7000500C2000500BD000400B90004005E
:10019000B5000400B1000400AD000400A900040093
:1001A000A5000300A20003009F0004009B000300C1
:1001B00098000300950002009300030090000300E4
:1001C0008D0002008B000300880002008600020000
:1001D00084000300810002007F0002007D00020015
:1001E0007B00020079000200770001007600020027
:1001F0007400020072000100710002006F00020032
:100200006D0001006C0002006A000100690002003C
:100210006700010066000100650001006400020043
:100220006200010061000100600001005F00020047
:100230005D0001005C0001005B0001005A0001004C
:10024000590001005800010057000100560001004C
:10025000550001005400010053000000530001004C
:100260005200010051000100500001004F00010048
:100270004E0000004E0001004D0001004C00010046
:100280004B0000004B0001004A0001004900010042
:10029000480000004800010047000100460000003F
:1002A0004600010045000000450001004400010037
:1002B0004300000043000100420000004200010032
:1002C0004100000041000100400001003F0000002B
:1002D0003F0001003E0000003E0001003D00000024
:1002E0003D0001003C0000003C0000003C0001001B
:1002F0003B0000003B0001003A0000003A00010012
:10030000390000003900010038000000380000000A
:1003100038000100370000003700010036000000FF
:1003200036000000360001003500000035000000F6
:1003300035000100340000003400000034000100EA
:1003400033000000330000003300010032000000E1
:1003500032000000320001003100000031000000D6
:1003600031000100300000003000000030000100CA
:100370002F0000002F0000002F0000002F000100C0
:100380002E0000002E0000002E0001002D000000B5
:100390002D0000002D0000002D0001002C000000A9
:1003A0002C0000002C0000002C0001002B0000009D
:1003B0002B0000002B0000002B0001002A00000091
:1003C0002A0000002A0000002A0001002900000085
:1003D0002900000029000000290000002900010078
:1003E000280000002800000028000000280000006D
:1003F000280001002700000027000000270000005F
:100400002700000027000100260000002600000051
:100410002600000026000000260001002500000044
:100420002500000025000000250000002500000038
:10043000250001002400000024000000240000002A
:10044000240000002400010023000000230000001D
:100450002300000023000000230000002300000010
:100460002300010022000000220000002200000002
:1004700022000000220000002200010021000000F4
:1004800021000000210000002100000021000000E8
:1004900021000000210001002000000020000000D9
:1004A00020000000200000002000000020000000CC
:1004B00020000000200001001F0000001F000000BD
:1004C0001F0000001F0000001F0000001F000000B0
:1004D0001F0001001E0000001E0000001E000000A2
:1004E0001E00000024F4D43050C38E20C2A2401756
:1004F000828B7011127A910D816CD90AA861E10882
:10050000C7586607615143061E4B5D05C145A704E8
:100510001A411104093D9803713931034036DB0259
:1005200065339102D4305402802E1D02632CEE01FB
:10053000752AC501B028A001102781018F2564010B
:100540002B244B01E0223401AC211F018D200D0131
:10055000801FFC00841EED00971DDF00B81CD20038
:10056000E61BC600201BBC00641AB200B219A8002A
:100570000A19A0006A189900D117910040178B0042
:10058000B516840031167E00B31579003A15730054
:10059000C7146F0058146A00EE13660088136300D6
:1005A00025135E00C7125B006C1257001512540031
:1005B000C111510070114F0021114B00D61049009C
:1005C0008D1047004610440002104200C00F40004A
:1005D000800F3E00420F3C00060F3B00CB0E380060
:1005E000930E37005C0E3500270E3400F30D3200F9
:1005F000C10D3100900D3000600D2E00320D2D0028
:10060000050D2C00D90C2B00AE0C2900850C2900FF
:100610005C0C2700350C27000E0C2600E80B24008C
:10062000C40B2400A00B23007D0B23005A0B2100D8
:10063000390B2100180B2000F80A1F00D90A1E00F0
:10064000BB0A1E009D0A1D00800A1D00630A1C00D3
:10065000470A1B002C0A1B00110A1A00F7091A008E
:10066000DD091900C4091900AB0919009209170026
:100670007B091800630917004C091600360916009B
:10068000200916000A091500F5081500E0081400F5
:10069000CC081400B8081400A40814009008130033
:1006A0007D0812006B08130058081200460812005B
:1006B000340811002308110012081100010811006C
:1006C000F0071000E0071000D0071000C00710006E
:1006D000B0070F00A107100091070E0083070F005D
:1006E00074070F0065070E0057070E0049070E003C
:1006F0003B070D002E070E0020070D0013070D000D
:1007000006070D00F9060C00ED060D00E0060C00D2
:10071000D4060C00C8060C00BC060C00B0060C0089
:10072000A4060B0099060C008D060B0082060B0038
:1007300077060B006C060B0061060A0057060B00DB
:100740004C060A0042060A0038060A002E060A0075
:1007500024060A001A060A001006090007060A0005
:10076000FD050900F4050900EB050900E205090093
:10077000D9050900D0050900C7050900BE05090013
:10078000B5050800AD050800A50509009C05080091
:10079000940508008C050800840508007C05080005
:1007A000740508006C050700650508005D05070075
:1007B000560508004E0507004705070040050800DC
:1007C00038050700310507002A0507002305070043
:1007D0001C050600160507000F05070008050600A2
:1007E00002050700FB040600F5040700EE040600FE
:1007F000E8040600E2040700DB040600D504060056
:10080000CF040600C9040600C3040600BD040600A8
:10081000B7040600B1040500AC040600A6040600F7
:10082000A00405009B040600950405009004060042
:100830008A04050085040500800406007A0405008A
:1008400075040500700405006B04050066040500CE
:10085000610405005C04050057040500520405000E
:100860004D04050048040500430405003E0404004F
:100870003A04050035040500300404002C0405008A
:1008800027040400230405001E0404001A040400C5
:1008900016040500110404000D04040009040500F9
:1008A0000404040000040400FC030400F803040032
:1008B000F4030400F0030400EC030400E803040064
:1008C000E4030400E0030400DC030400D803040094
:1008D000D4030400D0030400CC030400C8030300C5
:1008E000C5030300636F6F7264696E617465206293
:1008F00065796F6E642074686520706F73736962C8
:100900006C652061726561004730302C4730312CB6
:100910004730322C4730332C4730342C4732302C80
:100920004732312C4732382C4739302C4739312C5B
:100930004D31382C4D31313400737570706F7274D5
:100940002074686520666F6C6C6F77696E672047EE
:100950002D636F6465732028687474703A2F2F6557
:100960006E2E77696B6970656469612E6F72672F8F
:1009700077696B692F472D636F6465293A00544589
:100980004C45504F5254205B58782E78785D205B50
:1009900059782E78785D3B202D206D6F7665207418
:1009A0006865207669727475616C20706C6F747400
:1009B00065722E00202020202020202D20646973C5
:1009C000706C61792F7570646174652074686973E7
:1009D00020726F626F74277320636F6E666967752C
:1009E000726174696F6E2E00434F4E464947205B1B
:1009F00054782E78785D205B42782E78785D205B85
:100A000052782E78785D205B4C782E78785D3B00AC
:100A1000496E707574204D31303020746F207368CA
:100A20006F7720757020746869732068656C702E0C
:100A300000416C6C20636F6D6D616E647320656E38
:100A400064207769746820612073656D692D636F18
:100A50006C6F6E2E003D3D2044524157424F542052
:100A60002D20687474703A2F2F6769746875622E30
:100A7000636F6D2F692D6D616B652D726F626F7481
:100A8000732F44726177626F742F203D3D006C6953
:100A90006E6520636F6F726420696E706F73736927
:100AA000626C652E007920636F6F726420696E70CE
:100AB0006F737369626C652E006D6F746F72732053
:100AC000656E61626C65642E006D6F746F72732069
:100AD00064697361626C65642E004D61696E626F5A
:100AE0006172642046616E204F6666004D61696EDA
:100AF000626F6172642046616E204F6E0073746590
:100B000070207570206C6173747374657031206629
:100B1000696E697368656400456E7465722063610F
:100B20006C6962726174696F6E2E0043616E6365F9
:100B30006C2074686520582061786973206D6F7629
:100B4000656D656E747320616E64207374657020CA
:100B5000627265616B466C616720746F2066616CC0
:100B600073652E006E6F772049276D20696E206CAB
:100B7000696E65207069656365733A20007468204A
:100B800073746570732E0049276D206D616B696EFB
:100B90006720004A756D7020696E2063616C694C36
:100BA000696E6528292066756E6374696F6E000A28
:100BB000696E7075742076616C7565206D6D20624C
:100BC000617365642061732064656661756C74008F
:100BD00044454C54415F52414449555320696E206D
:100BE00073746570733A0044454C54415F524144FC
:100BF00049555320696E206D6D3A000A0A48656CAC
:100C00006C6F20574F524C442120546869732069FF
:100C100073204755414E4700000021002400270063
:100C20002A002D00300033000101000004010701FB
:100C30000A0100002200250028002B002E003100B0
:100C4000340002010000050108010B010000200032
:100C50002300260029002C002F0032000001000094
:100C6000030106010901050505050705080808082F
:100C7000020202020A0A0808040404040101010134
:100C8000010101010303030303030303040707072F
:100C90000C0C0C0C0C0C0C0C0202020206060606D4
:100CA000060606060B0B0B0B0B0B0B0B01021020A1
:100CB0002008081020401020408002010201080492
:100CC0000201010204081020408080402010080426
:100CD000020180040201804020100804020108047F
:100CE00002010102040810204080010204081020C3
:100CF00040800000090A02080B0C0D0706030401DE
:100D000000000000000000000000000000000000E3
:100D100000000000000000000000000000001110B2
:100D20000F000000000000000000000000000000B4
:100D30000000000000000000494E46494E49545949
:100D40004E414ECDCCCC3D0AD7233C17B7D1387796
:100D5000CC2B329595E6241FB14F0A0000204100AC
:100D600000C84200401C4620BCBE4CCA1B0E5AAEF6
:100D7000C59D7400671AAC2211241FBECFEFD1E2CB
:100D8000DEBFCDBF00E00CBF13E0A0E0B2E0E2E3C5
:100D9000FAE500E00BBF02C007900D92A639B1073B
:100DA000D9F71BBE1CE0A6E9B3E001C01D92A63135
:100DB000B107E1F71DE0C8E7DDE004C02297FE01BE
:100DC0000E94D12CC437D107C9F70E94E2230C94AA
:100DD000172D16C9662777274EC0FB01DC0102C01C
:100DE00001900D9241505040D8F70895FC01819137
:100DF000861721F08823D9F7992708953197CF01D5
:100E00000895FB01DC0101900D920020E1F70895A7
:100E1000FA01CF93FF93EF93223044F1253234F55A
:100E2000C22FE894CA3049F497FB3EF49095809520
:100E3000709561957F4F8F4F9F4F2C2F33274427FD
:100E40005527FF93EF930E94AD2CEF91FF91605DCA
:100E50006A330CF0695D6193B901CA01605070405A
:100E60008040904051F716F4CDE2C19310828F91EB
:100E70009F91CF9175C1A0E0B0E0E1E4F7E00C9460
:100E8000E62CEC015B016115710519F0FB01918302
:100E90008083F9908F2D90E00E94D52C892BC9F783
:100EA000FDE2FF1621F4F990EE24E39405C02BE255
:100EB000F21609F4F990EE248E0101501040C80199
:100EC00068E37DE043E050E033D1892BF9F48E01F3
:100ED0000E5F1F4FC8016BE37DE045E050E028D175
:100EE000892B19F48E01095F1F4FA114B10419F069
:100EF000F50111830083E0FC04C070E090E080E81D
:100F000013C070E090E080E86FEF07C1C80160E4B3
:100F10007DE043E050E00CD1892B69F4A114B104C9
:100F200029F470E090E080EC6FE7F7C02296F501BD
:100F3000D183C083F6CF8824992440E050E060E05C
:100F400070E0EF2DE053EA30A0F5F2E0EF2A8E2DAD
:100F500090E09C0128703070E2FE06C0232B79F5EA
:100F60000894811C911C2BC0232B19F00894810834
:100F70009108DB01CA0112E0880F991FAA1FBB1F4D
:100F80001A95D1F7480F591F6A1F7B1F440F551F31
:100F9000661F771F4E0F511D611D711D483929E9CC
:100FA000520729E9620729E1720748F084E0E82A3C
:100FB00006C0EE3F31F4E3FC39C098E0E92AF9902D
:100FC000C0CFE53311F0E53189F529912D3219F4BF
:100FD000E0E1EE2A05C02B3219F081E090E003C079
:100FE000299182E090E0E22FE053EA3018F0C81B2C
:100FF000D90B1CC020E030E0FCE020383F075CF457
:10100000C901880F991F880F991F280F391F220FB8
:10101000331F2E0F311DE991E053EA3068F3E4FEEF
:1010200003C0309521953F4F820E931ECE2CDD24B8
:10103000E1FE07C0A114B10421F02197F501D1838D
:10104000C083CB01BA010E94C72A7B018C01F3E067
:10105000CF22DD2423E0C216D10421F417FB109522
:1010600017F9109557016801C801B70120E030E079
:1010700040E050E00E942A2A882309F44AC097FEE3
:101080000DC027E5E22E2DE0F22E90948194910878
:101090009394C0E2D0E000E010E012C09FE6E92E99
:1010A0009DE0F92EF6CFF7012591359145915491A8
:1010B000C601B5010E94D22B5B016C018C1A9D0AFE
:1010C0008C169D0684F7D595C7950F5F1F4F063088
:1010D000110529F08CEF9FEFE80EF91EF1CFC50145
:1010E000D6017C018D018C2D880F8D2D881F8F3F9F
:1010F00051F0C601B50120E030E040E050E00E9430
:101100002A2A882331F482E290E09093150C809390
:10111000140C7E2D9F2D802F612F272F392F482FC4
:10112000562FB901CA01CDB7DEB7ECE00C94022D01
:10113000FB01DC014150504088F08D9181341CF05E
:101140008B350CF4805E659161341CF06B350CF4CA
:10115000605E861B611171F3990B0895881BFCCFAB
:10116000DC01FC01672F71917723E1F7329704C00E
:101170007C916D9370836291AE17BF07C8F3089599
:101180001F920F920FB60F920BB60F921124AF92CF
:10119000BF92CF92DF92EF92FF920F931F932F9304
:1011A0003F934F935F936F937F938F939F93AF93EF
:1011B000BF93CF93DF93EF93FF9380916808909153
:1011C0006908892B09F061C19091660880916708D0
:1011D000981719F4C0E0D0E014C08091670890E03F
:1011E0002DE430E0829FE001839FD00D929FD00DCF
:1011F0001124CA56DC4FC45BDF4F81E08883CC5496
:10120000D040D0936908C0936808209709F437C18B
:10121000C45BDF4F81E08883CC54D0401092AB0890
:101220001092AC081092AD081092AE0828AD39ADFE
:101230004CE92134340718F020E43CE904C05EE4B2
:101240002132350730F0369527953695279584E07D
:1012500007C067E22131360730F03695279582E0E6
:101260008093A40807C08093A4082032310510F4AD
:1012700020E230E0B9016052704088E060307807C9
:10128000E8F0472F50E0440F551F440F551F4C51B5
:101290005F4F9A012E5F3F4FF901859194919C0118
:1012A000AA27639FC001629F810D9A1F06948A1F1F
:1012B0009A1F1124FA01459154911EC0CB019695B5
:1012C00087958C7F8C519B4FFC0145915491FC017B
:1012D000329625913491862F90E087709070BC01F2
:1012E000269FC001279F900D369F900D1124A3E0EB
:1012F00096958795AA95E1F7481B590B5093B0082E
:101300004093AF088091A408992787FD909590930A
:10131000B2088093B1082CAD3DAD3093AA0820935C
:10132000A9087CE92134370718F020E43CE904C01F
:101330008EE42132380730F036952795369527957B
:1013400084E007C097E22131390730F036952795C0
:1013500082E08093A40808C081E08093A408203232
:10136000310510F420E230E0B90160527040E8E04D
:1013700060307E07E8F0472F50E0440F551F440FC0
:10138000551F4C515F4F9A012E5F3F4FF9018591D8
:1013900094919C01AA27639FC001629F810D9A1FAF
:1013A00006948A1F9A1F1124FA01459154911EC078
:1013B000CB01969587958C7F8C519B4FFC01459175
:1013C0005491FC01329625913491862F90E08770DC
:1013D0009070BC01269FC001279F900D369F900DF5
:1013E000112433E0969587953A95E1F7481B590B00
:1013F000CA01A0E0B0E08093A5089093A608A0934E
:10140000A708B093A8085093890040938800888962
:101410009989AA89BB89B695A79597958795B0951F
:10142000A095909581959F4FAF4FBF4F80938608B1
:1014300090938708A0938808B093890880938A08BE
:1014400090938B08A0938C08B0938D0880938E089E
:1014500090938F08A0939008B0939108809392087E
:1014600090939308A0939408B093950810929608CF
:1014700010929708109298081092990806C080ED73
:1014800097E09093890080938800C0916808D0917C
:101490006908209709F4ECC488A180939A0880FF1A
:1014A00003C0899A8FEF02C0899881E0809374030A
:1014B00080919A0881FF03C08F988FEF02C08F9AA6
:1014C00081E08093750380919A082091780380FFD2
:1014D0003BC0222309F470C08CB182958695877039
:1014E0008095282F217080FF2CC080919B08882335
:1014F00041F188819981AA81BB81181619061A06C3
:101500001B06FCF48091760890917708A0917808EA
:10151000B091790880936A0890936B08A0936C0847
:10152000B0936D0881E080939C0888899989AA8985
:10153000BB898093960890939708A0939808B093DE
:10154000990820939B0838C02223B1F18CB1829571
:101550008F708095282F217080FF2CC080919D086E
:10156000882341F188819981AA81BB8118161906C7
:101570001A061B06FCF48091760890917708A091DA
:101580007808B091790880936A0890936B08A093CB
:101590006C08B0936D0881E080939C0888899989D4
:1015A000AA89BB898093960890939708A09398087E
:1015B000B093990820939D0880919A082091780310
:1015C00081FF3AC0222309F46CC080910301869503
:1015D0008095282F217080FF2CC080919E08882341
:1015E00041F18C819D81AE81BF81181619061A06C2
:1015F0001B06FCF480917A0890917B08A0917C08EE
:10160000B0917D0880936E0890936F08A093700846
:10161000B093710881E080939F0888899989AA898D
:10162000BB898093960890939708A0939808B093ED
:10163000990820939E0835C0222399F12091030137
:10164000217031E0232759F18091A008882339F1D6
:101650008C819D81AE81BF81181619061A061B0662
:10166000F4F480917A0890917B08A0917C08B09165
:101670007D0880936E0890936F08A0937008B093D4
:10168000710830939F0888899989AA89BB898093BA
:10169000960890939708A0939808B0939908209380
:1016A000A00880919A082091780382FF46C08FB7E6
:1016B000F89490910B01926090930B018FBF8FEF84
:1016C00080937603222309F47AC089B186958695A2
:1016D00086958095282F217080FF2CC08091A108CD
:1016E000882341F188859985AA85BB851816190636
:1016F0001A061B06FCF480917E0890917F08A09149
:101700008008B09181088093720890937308A09329
:101710007408B093750881E08093A208888999893C
:10172000AA89BB898093960890939708A0939808FC
:10173000B09399082093A10842C09FB7F894809174
:101740000B018D7F80930B019FBF31E030937603B7
:101750002223A9F189B1869586958095282F21703D
:1017600080FF2BC08091A308882339F18885998553
:10177000AA85BB85181619061A061B06F4F4809173
:101780007E0890917F08A0918008B0918108809395
:10179000720890937308A0937408B09375083093FF
:1017A000A20888899989AA89BB8980939608909311
:1017B0009708A0939808B09399082093A308809164
:1017C0009A0883FF03C016988FEF02C0169A81E033
:1017D0008093770360E05BC1288139814A815B8116
:1017E0008091860890918708A0918808B091890817
:1017F000280F391F4A1F5B1F2093860830938708E4
:10180000409388085093890812161306140615068B
:101810006CF5889A88899989AA89BB89281B390B14
:101820004A0B5B0B20938608309387084093880807
:101830005093890820917608309177084091780874
:101840005091790880917403992787FD9095A92F6D
:10185000B92F820F931FA41FB51F80937608909312
:101860007708A0937808B093790888982C813D81F7
:101870004E815F8180918A0890918B08A0918C089D
:10188000B0918D08280F391F4A1F5B1F20938A08CB
:1018900030938B0840938C0850938D0812161306D2
:1018A000140615066CF58E9A88899989AA89BB89D0
:1018B000281B390B4A0B5B0B20938A0830938B084B
:1018C00040938C0850938D0820917A0830917B08C2
:1018D00040917C0850917D0880917503992787FD80
:1018E0009095A92FB92F820F931FA41FB51F809326
:1018F0007A0890937B08A0937C08B0937D088E981B
:10190000288539854A855B8580918E0890918F085E
:10191000A0919008B0919108280F391F4A1F5B1FB2
:1019200020938E0830938F0840939008509391082D
:101930001216130614061506DCF59FB7F89480916D
:101940000B01886080930B019FBF88899989AA89C0
:10195000BB89281B390B4A0B5B0B20938E083093F5
:101960008F08409390085093910820917E08309101
:101970007F084091800850918108809176039927D3
:1019800087FD9095A92FB92F820F931FA41FB51F14
:1019900080937E0890937F08A0938008B09381087D
:1019A0009FB7F89480910B01877F80930B019FBFB5
:1019B0002C853D854E855F85809192089091930896
:1019C000A0919408B0919508280F391F4A1F5B1FFA
:1019D000209392083093930840939408509395086D
:1019E00012161306140615066CF5149A888999893F
:1019F000AA89BB89281B390B4A0B5B0B20939208E1
:101A0000309393084093940850939508209182084E
:101A10003091830840918408509185088091770324
:101A2000992787FD9095A92FB92F820F931FA41F87
:101A3000B51F8093820890938308A0938408B09385
:101A4000850814988091960890919708A09198081D
:101A5000B09199080196A11DB11D809396089093AD
:101A60009708A0939808B093990820919608309110
:101A70009708409198085091990888899989AA896E
:101A8000BB89281739074A075B0730F46F5F8091DD
:101A9000A40868170CF4A0CE2091960830919708FE
:101AA00040919808509199088C899D89AE89BF8989
:101AB00082179307A407B50708F4CCC0E090A508E7
:101AC000F090A6080091A7081091A808AC8CBD8CD6
:101AD000CE8CDF8CA8019701C601B501AA27279FEC
:101AE000B12D389FF001489FF00D479FE00DF11D8B
:101AF000289FB00DE11DFA1F379FB00DE11DFA1FA1
:101B0000469FB00DE11DFA1F369FB10DEA1FFA1F67
:101B1000B695EA1FFA1F11248CAD9DAD8E0F9F1F45
:101B20009093AA088093A90828AD39AD4AAD5BAD62
:101B3000A0E0B0E0281739074A075B0720F430938C
:101B4000AA082093A9082091A9083091AA087CE945
:101B50002134370718F020E43CE904C08EE4213238
:101B6000380730F0369527953695279584E007C0DD
:101B700097E22131390730F03695279582E080933E
:101B8000A40808C081E08093A4082032310510F435
:101B900020E230E0B90160527040E8E060307E073A
:101BA000E8F0472F50E0440F551F440F551F4C518C
:101BB0005F4F9A012E5F3F4FF901859194919C01EF
:101BC000AA27639FC001629F810D9A1F06948A1FF6
:101BD0009A1F1124FA01459154911EC0CB0196958C
:101BE00087958C7F8C519B4FFC0145915491FC0152
:101BF000329625913491862F90E087709070BC01C9
:101C0000269FC001279F900D369F900D1124A3E0C1
:101C100096958795AA95E1F7481B590B5093890033
:101C2000409388009A0140E050E08091A50890918F
:101C3000A608A091A708B091A808820F931FA41F1F
:101C4000B51F8093A5089093A608A093A708B0930A
:101C5000A808EDC020919608309197084091980807
:101C600050919908888D998DAA8DBB8D8217930705
:101C7000A407B50708F0CFC06091AB087091AC081D
:101C80008091AD089091AE082C8D3D8D4E8D5F8D6D
:101C9000AA27639FB12D749FF001849FF00D839F4D
:101CA000E00DF11D649FB00DE11DFA1F739FB00D93
:101CB000E11DFA1F829FB00DE11DFA1F729FB10D49
:101CC000EA1FFA1FB695EA1FFA1F11248091A9088E
:101CD0009091AA088E179F0738F4C05CDF4F2881C7
:101CE0003981C054D04003C09C012E1B3F0BC05C07
:101CF000DF4F488159816A817B81C054D040C9013E
:101D0000A0E0B0E084179507A607B70708F49A018A
:101D10007CE92134370718F020E43CE904C08EE464
:101D20002132380730F0369527953695279584E08F
:101D300007C097E22131390730F03695279582E0C8
:101D40008093A40808C081E08093A4082032310564
:101D500010F420E230E0B90160527040E8E06030F9
:101D60007E07E8F0472F50E0440F551F440F551FE2
:101D70004C515F4F9A012E5F3F4FF901859194912D
:101D80009C01AA27639FC001629F810D9A1F069440
:101D90008A1F9A1F1124FA01459154911EC0CB014C
:101DA000969587958C7F8C519B4FFC014591549162
:101DB000FC01329625913491862F90E087709070C7
:101DC000BC01269FC001279F900D369F900D1124C6
:101DD00023E0969587952A95E1F7481B590B509378
:101DE0008900409388009A0140E050E08091AB0860
:101DF0009091AC08A091AD08B091AE08820F931FEE
:101E0000A41FB51F8093AB089093AC08A093AD08B6
:101E1000B093AE080CC08091AF089091B008909339
:101E20008900809388008091B1088093A408209154
:101E300096083091970840919808509199088889A0
:101E40009989AA89BB89281739074A075B0780F057
:101E5000109269081092680890916608809167084E
:101E6000981731F0809167088F5F8F7080936708B3
:101E7000FF91EF91DF91CF91BF91AF919F918F91A2
:101E80007F916F915F914F913F912F911F910F9192
:101E9000FF90EF90DF90CF90BF90AF900F900BBE70
:101EA0000F900FBE0F901F9018956F927F928F9298
:101EB0009F92AF92BF92CF92DF92EF92FF920F93D9
:101EC0001F9326E03CE644E355E40E94C6293B010B
:101ED0004C016091BD087091BE088091BF0890913F
:101EE000C0080E94C92A7B018C016091D5087091BD
:101EF000D6088091D7089091D8080E94C92A9B01E2
:101F0000AC01C801B7010E94C5295B016C01609159
:101F1000B9087091BA088091BB089091BC080E94E2
:101F2000C92A7B018C016091D1087091D2088091FF
:101F3000D3089091D4080E94C92A9B01AC01C80122
:101F4000B7010E94C5299B01AC01C601B5010E94E1
:101F50002E2A9B01AC01C401B3010E942E2A1F91BD
:101F60000F91FF90EF90DF90CF90BF90AF909F9038
:101F70008F907F906F9008950F931F9308E81BE058
:101F8000C8010E943C24C80165E57AE00E945C24F7
:101F9000C80161E37AE00E945C24C80160E17AE054
:101FA0000E945C24C80168EE79E00E945C24C801AC
:101FB00064EB79E00E945C24C8016EE779E00E943E
:101FC0005C24C80169E379E00E945C24C80168E0F0
:101FD00079E00E945C241F910F910895DF92EF92A7
:101FE000FF920F931F93CF93DF93D82E7A018B012B
:101FF000C0912509D0912609CB51D74FE5EEF8E0E5
:1020000011C08D1539F4CF0101960E94EA067B01BB
:102010008C010EC0CF0160E270E00E94F606FC0168
:10202000319631F08081882319F0EC17FD0748F3D1
:10203000B701C801DF91CF911F910F91FF90EF90F1
:10204000DF900895AF92BF92CF92DF92EF92FF920E
:102050000F931F935B016C0179018A016091D50890
:102060007091D6088091D7089091D8080E94C92A0B
:102070009B01AC01C801B7010E942A2A181694F4EA
:102080006091BD087091BE088091BF089091C00812
:102090000E94C92A9B01AC01C801B7010E94CE2B46
:1020A00088232CF088E89BE065EA7AE025C0C80127
:1020B000B701FBDE7B018C0188E89BE0B801A7013A
:1020C00022E030E00E942F26C601B501A801970149
:1020D0000E94CE2B87FF0CC0A80197015058C60163
:1020E000B5010E942A2A18161CF421E030E008C02D
:1020F00088E89BE06EE87AE00E945C2420E030E013
:10210000C9011F910F91FF90EF90DF90CF90BF908A
:10211000AF90089586E260E00E94D91E88E360E0F7
:102120000E94D91E8EE360E00E94D91E88E89BE0E1
:1021300069EB7AE00C945C2486E261E00E94D91E8F
:1021400088E361E00E94D91E8EE361E00E94D91EFF
:1021500088E89BE069EC7AE00C945C248AE060E01B
:102160000E94D91E88E89BE06AED7AE00C945C241A
:102170008AE061E00E94D91E88E89BE06CEE7AE07C
:102180000C945C240F931F938C01FC0181810E94AD
:10219000D91EF801808161E00E94D91E81E090E0A3
:1021A0000E94BA1DF801808160E00E94D91E1F9133
:1021B0000F9108958130910541F08230910541F0F1
:1021C000892B49F483EB98E002C085EB98E0DACFE5
:1021D00087EB98E0D7CF08952F923F924F925F926E
:1021E0006F927F928F929F92AF92BF92CF92DF9227
:1021F000EF92FF920F931F93DF93CF93CDB7DEB78C
:102200002E970FB6F894DEBF0FBECDBF29013A015D
:10221000DA82C982BC82AB829E828D8222ED33E556
:102220004BE752E40E942E2A20E030E048E453E4D9
:102230000E94D22B20E030E048EC51E40E94D22BE7
:102240000E949B2A6F83788789879A87C301B2018E
:1022500022ED33E54BE752E40E942E2A20E030E0E5
:1022600048E453E40E94D22B20E030E048EC51E4F3
:102270000E94D22B0E949B2A6B877C878D879E872A
:10228000C801B70122ED33E54BE752E40E942E2A44
:1022900020E030E048E453E40E94D22B20E030E01C
:1022A00048EC51E40E94D22B0E949B2A1B012C0176
:1022B0008091B9089091BA08A091BB08B091BC0870
:1022C0002F81388549855A85281B390B4A0B5B0BB2
:1022D000CA01B9010E94C92A7B018C018091BD0805
:1022E0009091BE08A091BF08B091C0082B853C8595
:1022F0004D855E85281B390B4A0B5B0BCA01B90162
:102300000E94C92A5B016C018091C1089091C208AA
:10231000A091C308B091C408A2019101281B390BF8
:102320004A0B5B0BCA01B9010E94C92A3B014C014F
:10233000C801B701A80197010E94D22B7B018C0133
:10234000C601B501A60195010E94D22B9B01AC01EB
:10235000C801B7010E94C6297B018C01C401B301E9
:10236000A40193010E94D22B9B01AC01C801B701CB
:102370000E94C6290E94392C0E94962AE981FA817E
:1023800060837183828393838091C5089091C6088E
:10239000A091C708B091C8082F81388549855A8512
:1023A000281B390B4A0B5B0BCA01B9010E94C92AD1
:1023B0007B018C018091C9089091CA08A091CB083B
:1023C000B091CC082B853C854D855E85281B390B4B
:1023D0004A0B5B0BCA01B9010E94C92A5B016C015F
:1023E0008091CD089091CE08A091CF08B091D008EF
:1023F000A2019101281B390B4A0B5B0BCA01B901E1
:102400000E94C92A3B014C01C801B701A8019701EC
:102410000E94D22B7B018C01C601B501A60195015A
:102420000E94D22B9B01AC01C801B7010E94C629B2
:102430007B018C01C401B301A40193010E94D22B42
:102440009B01AC01C801B7010E94C6290E94392C2A
:102450000E94962AEB81FC8160837183828393833F
:102460008091D1089091D208A091D308B091D4085E
:102470002F81388549855A85281B390B4A0B5B0B00
:102480002F83388749875A87CA01B9010E94C92A10
:102490007B018C018091D5089091D608A091D70836
:1024A000B091D8082B853C854D855E85281B390B5E
:1024B0004A0B5B0B2B873C874D875E87CA01B901AE
:1024C0000E94C92A5B016C018091D9089091DA08B9
:1024D000A091DB08B091DC08281A390A4A0A5B0A85
:1024E000C201B1010E94C92A3B014C01C801B701D8
:1024F000A80197010E94D22B7B018C01C601B50176
:10250000A60195010E94D22B9B01AC01C801B70125
:102510000E94C6297B018C01C401B301A40193016F
:102520000E94D22B9B01AC01C801B7010E94C629B1
:102530000E94392C0E94962AED81FE81608371836E
:10254000828393832E960FB6F894DEBF0FBECDBF65
:10255000CF91DF911F910F91FF90EF90DF90CF907F
:10256000BF90AF909F908F907F906F905F904F90B3
:102570003F902F9008952F923F924F925F926F92CB
:102580007F928F929F92AF92BF92CF92DF92EF9203
:10259000FF920F931F93DF93CF93CDB7DEB764976E
:1025A0000FB6F894DEBF0FBECDBF1B012C012D87E7
:1025B0003E874F87588BE98AFA8A0B8B1C8B6E01FA
:1025C0000894C11CD11CF5E0AF2EB12CAC0EBD1E81
:1025D000E9E08E2E912C8C0E9D1EFEDD89819A8164
:1025E000AB81BC81209127093091280940912909AC
:1025F00050912A09821B930BA40BB50B80933309CE
:1026000090933409A0933509B09336098D819E814A
:10261000AF81B88520912B0930912C0940912D096B
:1026200050912E09821B930BA40BB50B809341098B
:1026300090934209A0934309B093440989859A85F0
:10264000AB85BC8520912F0930913009409131092B
:1026500050913209821B930BA40BB50B80934F0949
:1026600090935009A0935109B0935209E3E3F9E024
:1026700066247724430180819181A281B381B7FFD1
:1026800007C0B095A095909581959F4FAF4FBF4FD4
:1026900084839583A683B78320E030E08081918195
:1026A000A281B381181619061A061B0614F021E040
:1026B00030E0318720871286138614861586848140
:1026C0009581A681B781681679068A069B0610F463
:1026D0003C014D013E9689E0ED35F80761F6CC24CA
:1026E000DD24760143C0D80116962D913D914D9180
:1026F0005C9119978D919D910D90BC91A02D280F03
:10270000391F4A1F5B1FF801268337834087518793
:1027100026153705480559058CF02619370948094B
:102720005909D80116962D933D934D935C931997B3
:1027300014966D917C911597C5013CDD0894A11C00
:10274000B11C025F1F4FB3E0AB16B10461F661E04C
:1027500070E080E090E00E94611D84E690E00E94BD
:10276000BA1D0894C11CD11CE11CF11CC614D7046D
:10277000E804F9042CF407E319E0AA24BB24B3CF3E
:1027800089819A81AB81BC81809327099093280924
:10279000A0932909B0932A098D819E81AF81B885C4
:1027A00080932B0990932C09A0932D09B0932E09A7
:1027B00089859A85AB85BC8580932F0990933009D4
:1027C000A0933109B09332092092DD083092DE08DF
:1027D0004092DF085092E0088D859E85AF85B889CC
:1027E0008093E1089093E208A093E308B093E40893
:1027F00089899A89AB89BC8980937B0390937C03F8
:10280000A0937D03B0937E0364960FB6F894DEBF69
:102810000FBECDBFCF91DF911F910F91FF90EF9031
:10282000DF90CF90BF90AF909F908F907F906F90F0
:102830005F904F903F902F9008952F923F924F922C
:102840005F926F927F928F929F92AF92BF92CF9240
:10285000DF92EF92FF920F931F93DF93CF93CDB749
:10286000DEB764970FB6F894DEBF0FBECDBF1B0175
:102870002C012D873E874F87588BE98AFA8A0B8B6C
:102880001C8B88E89BE063E97BE00E945C24C2012A
:10289000B1012D853E854F855889E988FA880B89D5
:1028A0001C896E010894C11CD11CE5E0AE2EB12C30
:1028B000AC0EBD1EB9E08B2E912C8C0E9D1E8CDCB7
:1028C00089819A81AB81BC812091270930912809A7
:1028D0004091290950912A09821B930BA40BB50B37
:1028E0008093330990933409A0933509B093360946
:1028F0008D819E81AF81B88520912B0930912C0963
:1029000040912D0950912E09821B930BA40BB50BFE
:102910008093410990934209A0934309B0934409DD
:1029200089859A85AB85BC8520912F093091300926
:102930004091310950913209821B930BA40BB50BC6
:1029400080934F0990935009A0935109B093520975
:10295000E3E3F9E066247724430180819181A28139
:10296000B381B7FF07C0B095A095909581959F4F13
:10297000AF4FBF4F84839583A683B78320E030E0B9
:1029800080819181A281B381181619061A061B064F
:1029900014F021E030E031872087128613861486F8
:1029A000158684819581A681B781681679068A0685
:1029B0009B0610F43C014D013E9689E0ED35F80789
:1029C00061F6AA24BB2465010CC188E89BE067E896
:1029D0007BE00E94192488E89BE0B601A5012AE06B
:1029E00030E00E94F82488E89BE06DE77BE00E94DD
:1029F0005C2483E00E940B1F892B51F08EE00E9423
:102A00000B1F892B29F082E10E940B1F892B69F58E
:102A10002092DD083092DE084092DF085092E008F4
:102A20008D859E85AF85B8898093E1089093E208F3
:102A3000A093E308B093E40889899A89AB89BC899B
:102A400080937B0390937C03A0937D03B0937E03DC
:102A500081E090E090935E0980935D0988E89BE0B7
:102A600060E072E00E944026C2C0A7E3EA2EA9E01F
:102A7000FA2E00E010E0D70116962D913D914D9170
:102A80005C9119978D919D910D90BC91A02D280F6F
:102A9000391F4A1F5B1FF701268337834087518701
:102AA00026153705480559050CF484C02619370941
:102AB00048095909D70116962D933D934D935C9380
:102AC000199714966D917C911597C80173DB0130AD
:102AD000110559F10230110509F44AC0011511051B
:102AE00009F068C080913B0990913C092091270929
:102AF000309128094091290950912A091816190680
:102B000034F4DA01C9010197A109B10905C0DA015C
:102B1000C9010196A11DB11D809327099093280931
:102B2000A0932909B0932A0945C080914909909141
:102B30004A0920912B0930912C0940912D0950917F
:102B40002E091816190634F4DA01C9010197A109F2
:102B5000B10905C0DA01C9010196A11DB11D80931B
:102B60002B0990932C09A0932D09B0932E0922C014
:102B7000809157099091580920912F09309130097F
:102B800040913109509132091816190634F4DA01CE
:102B9000C9010197A109B10905C0DA01C90101966E
:102BA000A11DB11D80932F0990933009A093310985
:102BB000B09332090F5F1F4FEEE0F0E0EE0EFF1E04
:102BC0000330110509F057CF61E070E080E090E03C
:102BD00078D788EC90E0CED70894A11CB11CC11C1A
:102BE000D11CA614B704C804D9040CF4EECE20926C
:102BF000DD083092DE084092DF085092E0088D85B3
:102C00009E85AF85B8898093E1089093E208A093F0
:102C1000E308B093E40889899A89AB89BC898093D9
:102C20007B0390937C03A0937D03B0937E03649613
:102C30000FB6F894DEBF0FBECDBFCF91DF911F91CD
:102C40000F91FF90EF90DF90CF90BF90AF909F904B
:102C50008F907F906F905F904F903F902F9008954E
:102C60002F923F924F925F926F927F928F929F929C
:102C7000AF92BF92CF92DF92EF92FF920F931F938A
:102C8000DF93CF93CDB7DEB76C970FB6F894DEBF66
:102C90000FBECDBF1B012C0159016A01370148014C
:102CA0008091DD089091DE08A091DF08B091E008E6
:102CB000898F9A8FAB8FBC8FC201B101298D3A8D5C
:102CC0004B8D5C8D0E94C5296D877E878F87988B81
:102CD0008091E1089091E208A091E308B091E408A6
:102CE0008D8B9E8BAF8BB88FC601B5012D893E8928
:102CF0004F89588D0E94C52969877A878B879C8761
:102D000080917B0390917C03A0917D03B0917E0321
:102D1000898B9A8BAB8BBC8BC801B70129893A8907
:102D20004B895C890E94C5296D837E838F83988738
:102D30006D857E858F8598899B01AC010E94D22B81
:102D40007B018C0169857A858B859C859B01AC0113
:102D50000E94D22B9B01AC01C801B7010E94C62979
:102D60007B018C016D817E818F8198859B01AC01F7
:102D70000E94D22B9B01AC01C801B7010E94C62959
:102D80000E94392C7B018C0120E030E040E85FE3B9
:102D90000E942A2A181644F0C201B101A601950129
:102DA000840173014ADD87C0C801B7010E94042B6A
:102DB0000E94962A69837A838B839C8322243324FE
:102DC00021016FC088E89BE064E67BE00E94192443
:102DD00088E89BE0B201A1012AE030E00E9436259C
:102DE00080915D0990915E09892B09F04FC0C20165
:102DF000B1010E94C92A7B018C0169817A818B8192
:102E00009C810E94C92A9B01AC01C801B7010E94A4
:102E10002E2A7B018C016D857E858F859889A8017E
:102E200097010E94D22B298D3A8D4B8D5C8D0E948B
:102E3000C6293B014C0169857A858B859C85A80153
:102E400097010E94D22B2D893E894F89588D0E946F
:102E5000C6295B016C016D817E818F819885A801F7
:102E600097010E94D22B29893A894B895C890E945B
:102E7000C6297B018C01C401B301A6019501DDDCEB
:102E80000894211C311C411C511C0BC010925E097E
:102E900010925D0988E89BE06BE27BE00E945C2475
:102EA0000AC089819A81AB81BC8182159305A405F2
:102EB000B5050CF087CF6C960FB6F894DEBF0FBE49
:102EC000CDBFCF91DF911F910F91FF90EF90DF90D9
:102ED000CF90BF90AF909F908F907F906F905F90BA
:102EE0004F903F902F900895EF92FF920F931F9372
:102EF000DF93CF93CDB7DEB76C970FB6F894DEBFF4
:102F00000FBECDBF88E89BE068E17BE00E945C24B7
:102F100060E070E48CE195E426E03CE644EB54E4A8
:102F20000F2EF0E0EF2EF0E8FF2EF2E20F2FF5E487
:102F30001F2FF02D95DEA8E0EA2EF12CEC0EFD1EE1
:102F4000C70162E172E00E944A274091270950912F
:102F500028096091290970912A098E010F5F1F4F7E
:102F6000C8012AE00E947A27C701B8010E941727EA
:102F7000BC0188E89BE00E948326C8010E94AB2721
:102F8000C7010E94AF278EED9BEAA2E0B0E08093DC
:102F9000270990932809A0932909B0932A0988E862
:102FA0009BE06DEF7AE00E945C24F6E1EF2EF12CBD
:102FB000EC0EFD1EC70160E372E00E944A278E01FD
:102FC000015F1F4F409127095091280960912909FD
:102FD00070912A09C8012AE00E947A27C701B80126
:102FE0000E941727BC0188E89BE00E948326C80145
:102FF0000E94AB27C7010E94AF2700E010E080E0ED
:1030000090E060E070E0D6D880912709909128097F
:10301000A0912909B0912A090196A11DB11D8093A3
:10302000270990932809A0932909B0932A0961E000
:1030300070E080E090E045D584EF91E09BD50F5F94
:103040001F4F84E0023E1807D1F668EE73E080E07F
:1030500090E037D588E89BE060E472E00E9440266B
:1030600062E070E48CE195EC22E03CE644EB54E451
:103070000F2EF0E0EF2EF0E8FF2EF2E20F2FF5E436
:103080001F2FF02DEDDD88E89BE064E672E00E94E2
:1030900040268EED9BEAA2E0B0E080932B0990934E
:1030A0002C09A0932D09B0932E0900E010E081E0D7
:1030B00090E060E070E07ED880912B0990912C091F
:1030C000A0912D09B0912E090196A11DB11D8093EB
:1030D0002B0990932C09A0932D09B0932E0961E040
:1030E00070E080E090E0EDD484EF91E043D50F5F95
:1030F0001F4F84E0023E1807D1F668EE73E080E0CF
:1031000090E0DFD488E89BE066E872E00E94402609
:103110006C960FB6F894DEBF0FBECDBFCF91DF9196
:103120001F910F91FF90EF9008952F923F924F9231
:103130005F926F927F928F929F92AF92BF92CF9247
:10314000DF92EF92FF920F931F9387E440E050E0ED
:1031500060E87FEB0E94EE0F0E94962A6A357105A7
:1031600009F470C06B3571052CF46230710508F0FC
:10317000A6C009C06B35710509F46BC06C357105CB
:1031800009F09DC06BC08091790390917A03892BDF
:1031900029F440E050E060E070E008C04091DD08B4
:1031A0005091DE086091DF087091E00888E50E9488
:1031B000EE0F1B012C018091790390917A03892BEA
:1031C00029F440E050E060E070E008C04091E10880
:1031D0005091E2086091E3087091E40889E50E944B
:1031E000EE0F3B014C018091790390917A03892B7A
:1031F00029F440E050E060E070E008C040917B03BB
:1032000050917C0360917D0370917E038AE50E945A
:10321000EE0F5B016C01C201B101A40193018601B3
:1032200075010E942210892B31F0C201B101A40165
:103230009301A1D944C088E89BE064EE78E00E9445
:103240005C243DC081E090E090937A038093790301
:1032500036C010927A031092790331C088E540E0BD
:1032600050E060E070E00E94EE0F5B016C0189E5C8
:1032700040E050E060E070E00E94EE0F7B018C01C6
:103280008AE540E050E060E070E00E94EE0FA0921E
:10329000DD08B092DE08C092DF08D092E008E0922C
:1032A000E108F092E2080093E3081093E4086093C9
:1032B0007B0370937C0380937D0390937E038DE466
:1032C00040E050E060E87FEB0E94EE0F0E94962AFB
:1032D0006B36710509F488C06C3671059CF4653550
:1032E000710541F1663571052CF46435710509F0FD
:1032F0008DC01DC06436710501F16A36710509F093
:1033000085C06FC06C3C710509F471C06D3C7105DE
:103310002CF46237710509F079C012C06D3C71055B
:1033200009F46CC06B3F710509F070C06EC00E945B
:103330009C106CC00E948A1069C00E94BC0F66C0BD
:1033400088E89BE06DE972E00E945A254091DD0813
:103350005091DE086091DF087091E00888E89BE0FA
:1033600022E030E00E942D2688E89BE060EA72E0CF
:103370000E945A254091E1085091E2086091E308CB
:103380007091E40888E89BE022E030E00E942D265E
:1033900088E89BE066EA72E00E945A2540917B0330
:1033A00050917C0360917D0370917E0388E89BE0DF
:1033B00022E030E00E942D2688E89BE06CEA72E073
:1033C0000E945A2588E89BE06BE770E04AE050E0F5
:1033D0000E94482588E89BE061EB72E00E945A2534
:1033E00015C00E94B81012C00E94AE100FC083E634
:1033F00040E050E060E87FEB0E94EE0F87E740E09E
:1034000050E060E87FEB0E94EE0F6EDD1F910F91A0
:10341000FF90EF90DF90CF90BF90AF909F908F90F4
:103420007F906F905F904F903F902F9008950F93F3
:103430001F9314C0009125091091260988E89BE08C
:103440000E943322F801EB51F74F80830F5F1F4F2B
:1034500010932609009325098B3331F088E89BE00F
:10346000D1D71816190634F38091250990912609B1
:1034700018161906CCF4FC01EB51F74F82913196E6
:103480008B3391F4108288E89BE065EE78E00E942F
:1034900040264BDE109226091092250988E89BE011
:1034A00063EB72E00E9440261F910F9108950F93E5
:1034B0001F938C01862FF8016083418361E0C6D39E
:1034C000F801818161E0C2D31F910F91089583EBD0
:1034D00098E066E347E3EBDF85EB98E06CE34DE3D0
:1034E000E6DF87EB98E06EE240E3E1CF6F927F92F8
:1034F0008F929F92AF92BF92CF92DF92EF92FF9204
:103500000F931F93DF93CF93CDB7DEB7CC58D04046
:103510000FB6F894DEBF0FBECDBF86E361E096D351
:103520008CE361E093D38EE261E090D387E361E0C6
:103530008DD38DE361E08AD380E361E087D386E2B7
:1035400061E084D388E361E081D38EE361E07ED3E0
:1035500083E060E07BD38EE060E078D382E160E0DE
:1035600075D382E060E072D38FE060E06FD383E1D7
:1035700060E06CD38AE061E069D386E260E019D450
:1035800088E360E016D48EE360E013D48AE061E063
:1035900010D4B8E86B2EBBE07B2EC30140E052ECA8
:1035A00061E070E0A8D6C3016BEF7BE00E945C2471
:1035B0008FE199E0A3E0B0E08093B9089093BA0856
:1035C000A093BB08B093BC088CEA90ECA1E0B0E0FB
:1035D0008093BD089093BE08A093BF08B093C00825
:1035E00081EE96EFACEFBFEF8093C5089093C608CD
:1035F000A093C708B093C8088BEA90ECA1E0B0E0B4
:103600008093C9089093CA08A093CB08B093CC08C4
:103610001092D1081092D2081092D3081092D408B8
:1036200088EA9EE7ACEFBFEF8093D5089093D60869
:10363000A093D708B093D80885E398E2A3E0B0E060
:103640008093D9089093DA08A093DB08B093DC0844
:103650008093CD089093CE08A093CF08B093D00864
:103660008093C1089093C208A093C308B093C40884
:1036700060E070E080E090E09B01AC010F2EF0E094
:10368000EF2EF0E8FF2EFBEB0F2FF4E41F2FF02DB1
:10369000A7E2CA2EA9E0DA2EFBE2AF2EF9E0BF2E98
:1036A000EFE28E2EE9E09E2E0E94EC101092260989
:1036B0001092250968E0E62EF12CEC0EFD1EC701E4
:1036C00066EB72E00E944A27409127095091280931
:1036D0006091290970912A098E010F5F1F4FC8015F
:1036E0002AE00E947A27C701B8010E941727BC016F
:1036F000C3010E948326C8010E94AB27C7010E9414
:10370000AF2756E1E52EF12CEC0EFD1EC70161EC52
:1037100072E00E944A278E01015F1F4F40912B09E2
:1037200050912C0960912D0970912E09C8012AE051
:103730000E947A27C701B8010E941727BC01C30164
:103740000E948326C8010E94AB27C7010E94AF27B1
:1037500044E2E42EF12CEC0EFD1EC7016CEC72E08D
:103760000E944A278E01035E1F4F40912F095091FE
:1037700030096091310970913209C8012AE00E9434
:103780007A27C701B8010E941727BC01C3010E9414
:103790008326C8010E94AB27C7010E94AF2732E3EE
:1037A000E32EF12CEC0EFD1EC70167ED72E00E94C6
:1037B0004A278E01055D1F4F4091B9085091BA0804
:1037C0006091BB087091BC08C8012AE00E947A276A
:1037D000C701B8010E941727BC01C3010E948326BC
:1037E000C8010E94AB27C7010E94AF2720E4E22E48
:1037F000F12CEC0EFD1EC70167EE72E00E944A2715
:103800008E01075C1F4F4091BD085091BE0860912A
:10381000BF087091C008C8012AE00E947A27C7013A
:10382000B8010E941727BC01C3010E948326C8016A
:103830000E94AB27C7010E94AF279EE4E92EF12C1E
:10384000EC0EFD1EC70167EF72E00E944A278E0151
:10385000095B1F4F4091C5085091C6086091C70889
:103860007091C808C8012AE00E947A27C701B801F0
:103870000E941727BC01C3010E948326C8010E9431
:10388000AB27C7010E94AF278CE5E82EF12CEC0E88
:10389000FD1EC70167E073E00E944A278E010B5AA4
:1038A0001F4F4091C9085091CA086091CB08709190
:1038B000CC08C8012AE00E947A27C701B8010E94FB
:1038C0001727BC01C3010E948326C8010E94AB27B1
:1038D000C7010E94AF270AE6E02EF12CEC0EFD1E78
:1038E000C70167E173E00E944A278E010D591F4FFF
:1038F0004091D1085091D2086091D3087091D408BA
:10390000C8012AE00E947A27C701B8010E94172740
:10391000BC01C3010E948326C8010E94AB27C701D6
:103920000E94AF2718E7E12EF12CEC0EFD1EC70117
:1039300067E273E00E944A278E010F581F4F4091A3
:10394000D5085091D6086091D7087091D808C80161
:103950002AE00E947A27C701B8010E941727BC01FC
:10396000C3010E948326C8010E94AB27C7010E94A1
:10397000AF27B6E8EB2EF12CEC0EFD1EC70167E376
:1039800073E00E944A278E0101581F4F4091D908C9
:103990005091DA086091DB087091DC08C8012AE0D8
:1039A0000E947A27C701B8010E941727BC01C301F2
:1039B0000E948326C8010E94AB27C7010E94AF273F
:1039C000C30167EE7BE035D7C30146E05CE664E304
:1039D00075E422E030E00E942F26C30160ED7BE019
:1039E00028D7C30148E551E863E070E02AE030E001
:1039F0000E943625C3016FEA7BE05ED7C30163EB0B
:103A000072E00E944026C457DF4F0FB6F894DEBF25
:103A10000FBECDBFCF91DF911F910F91FF90EF901F
:103A2000DF90CF90BF90AF909F908F907F906F90DE
:103A300008951F920F920FB60F9211242F933F9368
:103A40008F939F93AF93BF93809163099091640983
:103A5000A0916509B0916609309167090196A11D91
:103A6000B11D232F2D5F2D3720F02D570196A11D5D
:103A7000B11D209367098093630990936409A09313
:103A80006509B093660980915F0990916009A091E2
:103A90006109B09162090196A11DB11D80935F0972
:103AA00090936009A0936109B0936209BF91AF91AF
:103AB0009F918F913F912F910F900FBE0F901F906C
:103AC00018959B01AC017FB7F89480915F099091A4
:103AD0006009A0916109B091620966B5A89B05C013
:103AE0006F3F19F00196A11DB11D7FBFBA2FA92FFD
:103AF000982F8827860F911DA11DB11D62E0880FA8
:103B0000991FAA1FBB1F6A95D1F7BC012DC0FFB733
:103B1000F89480915F0990916009A0916109B0913A
:103B20006209E6B5A89B05C0EF3F19F00196A11DFB
:103B3000B11DFFBFBA2FA92F982F88278E0F911D77
:103B4000A11DB11DE2E0880F991FAA1FBB1FEA95B6
:103B5000D1F7861B970B885E9340C8F22150304006
:103B60004040504068517C4F2115310541055105B9
:103B700071F60895019739F0880F991F880F991FE2
:103B800002970197F1F70895789484B5826084BD17
:103B900084B5816084BD85B5826085BD85B5816051
:103BA00085BDEEE6F0E0808181608083E1E8F0E0B1
:103BB0001082808182608083808181608083E0E8E0
:103BC000F0E0808181608083E1EBF0E080818460BF
:103BD0008083E0EBF0E0808181608083E1E9F0E0C8
:103BE000808182608083808181608083E0E9F0E071
:103BF000808181608083E1EAF0E08081826080835F
:103C0000808181608083E0EAF0E080818160808350
:103C1000E1E2F1E080818260808380818160808345
:103C2000E0E2F1E0808181608083EAE7F0E080817A
:103C300084608083808182608083808181608083D2
:103C40008081806880831092C1000895CF93DF93B4
:103C5000482F50E0CA018455934FFC0134914A59D2
:103C6000534FFA018491882369F190E0880F991FDE
:103C7000FC01E85EF34FA591B491FC01EE5CF34FBB
:103C8000C591D491662351F42FB7F8948C91932F5A
:103C9000909589238C93888189230BC0623061F4CD
:103CA0002FB7F8948C91932F909589238C938881CA
:103CB000832B88832FBF06C09FB7F8948C91832BEA
:103CC0008C939FBFDF91CF910895893009F449C04B
:103CD0008A30A0F4843051F1853040F4823079F19B
:103CE000833000F5813009F063C026C0873079F158
:103CF000883098F5863009F05BC025C08D3009F416
:103D000042C08E3028F48B30B1F18C30C0F52DC01C
:103D1000803109F442C0813109F445C08F3009F087
:103D200047C037C0809180008F7703C080918000AA
:103D30008F7D80938000089584B58F7702C084B50D
:103D40008F7D84BD08958091B0008F7703C08091EE
:103D5000B0008F7D8093B0000895809190008F77A0
:103D600007C0809190008F7D03C080919000877F75
:103D70008093900008958091A0008F7707C0809174
:103D8000A0008F7D03C08091A000877F8093A0005A
:103D90000895809120018F7703C0809120018F7D4D
:103DA00080932001089580912001877F80932001D6
:103DB0000895FF920F931F93F62E482F50E0CA01EB
:103DC0008E50934FFC012491CA018455934FFC01FE
:103DD00014914A59534FFA0104910023C1F0222350
:103DE00011F0822F72DFE02FF0E0EE0FFF1FEE5C8C
:103DF000F34FA591B4919FB7F894FF2021F48C91D3
:103E00001095812302C08C91812B8C939FBF1F91B1
:103E10000F91FF9008950F931F93482F50E0CA0110
:103E20008E50934FFC012491CA018455934FFC019D
:103E300004914A59534FFA011491112319F420E0C7
:103E400030E014C0222311F0822F3FDF812F90E059
:103E5000880F991F845B934FFC01A591B4918C91BD
:103E600020E030E0802311F021E030E0C9011F9113
:103E70000F91089508951F920F920FB60F920BB6EF
:103E80000F9211242F933F934F938F939F93EF9310
:103E9000FF938091C00082FD1DC04091C60020911B
:103EA000A8093091A9092F5F3F4F2F73307080917F
:103EB000AA099091AB092817390771F0E091A80978
:103EC000F091A909E859F64F40833093A90920934E
:103ED000A80902C08091C600FF91EF919F918F9138
:103EE0004F913F912F910F900BBE0F900FBE0F90EF
:103EF0001F90189508951F920F920FB60F920BB650
:103F00000F9211242F933F934F938F939F93EF938F
:103F1000FF938091C80082FD1DC04091CE0020918A
:103F2000300A3091310A2F5F3F4F2F7330708091EC
:103F3000320A9091330A2817390771F0E091300A5C
:103F4000F091310AE051F64F40833093310A2093CB
:103F5000300A02C08091CE00FF91EF919F918F9126
:103F60004F913F912F910F900BBE0F900FBE0F906E
:103F70001F90189508951F920F920FB60F920BB6CF
:103F80000F9211242F933F934F938F939F93EF930F
:103F9000FF938091D00082FD1DC04091D6002091FA
:103FA000B80A3091B90A2F5F3F4F2F73307080915C
:103FB000BA0A9091BB0A2817390771F0E091B80A44
:103FC000F091B90AE858F54F40833093B90A20932D
:103FD000B80A02C08091D600FF91EF919F918F9116
:103FE0004F913F912F910F900BBE0F900FBE0F90EE
:103FF0001F90189508951F920F920FB60F920BB64F
:104000000F9211242F933F934F938F939F93EF938E
:10401000FF938091300182FD1DC0409136012091B7
:10402000400B3091410B2F5F3F4F2F7330708091C9
:10403000420B9091430B2817390771F0E091400B28
:10404000F091410BE050F54F40833093410B2093AA
:10405000400B02C080913601FF91EF919F918F91AB
:104060004F913F912F910F900BBE0F900FBE0F906D
:104070001F901895E091940BF091950BE05CFF4F29
:104080008191919120813181821B930B8F7390706C
:10409000892B09F0EFDEE091B60BF091B70BE05CF5
:1040A000FF4F8191919120813181821B930B8F73FE
:1040B0009070892B09F01EDFE091D80BF091D90B9D
:1040C000E05CFF4F8191919120813181821B930BA4
:1040D0008F739070892B09F04DDFE091FA0BF0910E
:1040E000FB0BE05CFF4F8191919120813181821B1C
:1040F000930B8F739070892B09F07CCF08951F92DA
:104100000F920FB60F920BB60F9211242F933F937D
:104110008F939F93EF93FF932091EC093091ED09DA
:104120008091EE099091EF092817390731F48091B9
:10413000C1008F7D8093C10014C0E091EE09F09121
:10414000EF09E455F64F20818091EE099091EF0937
:1041500001968F7390709093EF098093EE092093EE
:10416000C600FF91EF919F918F913F912F910F90FA
:104170000BBE0F900FBE0F901F9018951F920F92BD
:104180000FB60F920BB60F9211242F933F938F937C
:104190009F93EF93FF932091740A3091750A809159
:1041A000760A9091770A2817390731F48091C9006F
:1041B0008F7D8093C90014C0E091760AF091770A50
:1041C000EC5CF54F20818091760A9091770A0196F8
:1041D0008F7390709093770A8093760A2093CE0025
:1041E000FF91EF919F918F913F912F910F900BBE77
:1041F0000F900FBE0F901F9018951F920F920FB641
:104200000F920BB60F9211242F933F938F939F938E
:10421000EF93FF932091FC0A3091FD0A8091FE0AF2
:104220009091FF0A2817390731F48091D1008F7DD2
:104230008093D10014C0E091FE0AF091FF0AE4548B
:10424000F54F20818091FE0A9091FF0A01968F73AD
:1042500090709093FF0A8093FE0A2093D600FF91FE
:10426000EF919F918F913F912F910F900BBE0F90E7
:104270000FBE0F901F9018951F920F920FB60F92BE
:104280000BB60F9211242F933F938F939F93EF932D
:10429000FF932091840B3091850B8091860B909138
:1042A000870B2817390731F4809131018F7D809376
:1042B000310114C0E091860BF091870BEC5BF44F59
:1042C00020818091860B9091870B01968F7390705F
:1042D0009093870B8093860B20933601FF91EF918B
:1042E0009F918F913F912F910F900BBE0F900FBE1A
:1042F0000F901F901895AF92BF92DF92EF92FF92AE
:104300000F931F93CF93DF93EC017A018B01DD2490
:10431000403081EE580780E0680780E0780711F0B0
:10432000DD24D39491E0A92EB12CEC89FD89DD2008
:1043300069F0C50108A002C0880F991F0A94E2F72E
:10434000808360E079E08DE390E005C0108260E852
:1043500074E88EE190E0A80197010E94AD2C2150F5
:10436000304040405040569547953795279580E11D
:104370002030380720F0DD2011F0DD24D6CFE88989
:10438000F9893083EA89FB89208319A2EE89FF89A4
:10439000408121E030E0C9010C8C02C0880F991FD8
:1043A0000A94E2F7482B4083EE89FF894081C901D6
:1043B0000D8C02C0880F991F0A94E2F7482B4083A6
:1043C000EE89FF894081C9010E8C02C0880F991FB8
:1043D0000A94E2F7482B4083EE89FF8980810F8C95
:1043E00002C0220F331F0A94E2F72095282320836E
:1043F000DF91CF911F910F91FF90EF90DF90BF90D1
:10440000AF900895DC011C96ED91FC911D97E05C46
:10441000FF4F2191319180819181281B390B2F739E
:104420003070C9010895DC011C96ED91FC911D9737
:10443000E05CFF4F20813181E054F040DF01AE5B52
:10444000BF4F8D919C9111972817390719F42FEFC1
:104450003FEF07C08D919C91E80FF91F8081282FB5
:1044600030E0C9010895DC011C96ED91FC911D9787
:10447000E05CFF4F20813181E054F040DF01AE5B12
:10448000BF4F8D919C9111972817390719F42FEF81
:104490003FEF10C08D919C911197E80FF91F20817B
:1044A0008D919C91119701968F73907011969C93AA
:1044B0008E9330E0C9010895DC0191968C9191971B
:1044C000882339F05496ED91FC915597808186FFB1
:1044D000F9CF91961C920895CF93DF93EC01EE856E
:1044E000FF85E05CFF4F20813181E054F0402F5F79
:1044F0003F4F2F733070DF01AE5BBF4F8D919C91AA
:10450000119728173907D1F3E05CFF4F8081918123
:10451000E054F040E80FF91F6083EE85FF85E05C12
:10452000FF4F31832083EE89FF89208181E090E075
:104530000F8C02C0880F991F0A94E2F7282B208362
:1045400081E089A3EC89FD8980818064808381E09A
:1045500090E0DF91CF9108951F9310928B0B1092F2
:104560008A0B28EE33E040E050E020938C0B309330
:104570008D0B40938E0B50938F0B69E873E0709313
:10458000890B6093880B88E699E09093950B809354
:10459000940B8CEA99E09093970B8093960B85ECA3
:1045A00090E09093990B8093980B84EC90E090931B
:1045B0009B0B80939A0B80EC90E090939D0B8093E3
:1045C0009C0B81EC90E090939F0B80939E0B82EC70
:1045D00090E09093A10B8093A00B86EC90E09093D9
:1045E000A30B8093A20B14E01093A40BB3E0B09341
:1045F000A50BA7E0A093A60BF5E0F093A70BE1E0D5
:10460000E093A80B1092AD0B1092AC0B2093AE0B65
:104610003093AF0B4093B00B5093B10B7093AB0B37
:104620006093AA0B80EF99E09093B70B8093B60B41
:1046300084E39AE09093B90B8093B80B8DEC90E0F3
:104640009093BB0B8093BA0B8CEC90E09093BD0BD6
:104650008093BC0B88EC90E09093BF0B8093BE0BD3
:1046600089EC90E09093C10B8093C00B8AEC90E0B2
:104670009093C30B8093C20B8EEC90E09093C50B8C
:104680008093C40B1093C60BB093C70BA093C80BB9
:10469000F093C90BE093CA0B1092CF0B1092CE0B84
:1046A0002093D00B3093D10B4093D20B5093D30B6C
:1046B0007093CD0B6093CC0B88E79AE09093D90B65
:1046C0008093D80B8CEB9AE09093DB0B8093DA0B02
:1046D00085ED90E09093DD0B8093DC0B84ED90E012
:1046E0009093DF0B8093DE0B80ED90E09093E10BD5
:1046F0008093E00B81ED90E09093E30B8093E20BCD
:1047000082ED90E09093E50B8093E40B86ED90E0D2
:104710009093E70B8093E60B1093E80BB093E90BB3
:10472000A093EA0BF093EB0BE093EC0B1092F10BE0
:104730001092F00B2093F20B3093F30B4093F40B99
:104740005093F50B7093EF0B6093EE0B80E09BE0C2
:104750009093FB0B8093FA0B84E49BE09093FD0B0A
:104760008093FC0B85E391E09093FF0B8093FE0B0D
:1047700084E391E09093010C8093000C80E391E03E
:104780009093030C8093020C81E391E09093050CCD
:104790008093040C82E391E09093070C8093060CC5
:1047A00086E391E09093090C8093080C10930A0C17
:1047B000B0930B0CA0930C0CF0930D0CE0930E0C2B
:1047C0001F910895CF93DF93DFD90E94761ACAE331
:1047D000D0E20E94171A2097E1F34CDCFACFCF9277
:1047E000DF92EF92FF920F931F93CF93DF937C01A1
:1047F0006B018A01C0E0D0E00FC0D6016D916D0160
:10480000D701ED91FC910190F081E02DC701199540
:10481000C80FD91F015010400115110571F7CE01C5
:10482000DF91CF911F910F91FF90EF90DF90CF908C
:104830000895EF92FF920F931F93CF93DF937C0124
:104840008B01C0E0D0E0F8010F5F1F4F6491662339
:1048500059F0D701ED91FC910190F081E02DC70155
:104860001995C80FD91FEFCFCE01DF91CF911F91BE
:104870000F91FF90EF900895EF92FF920F931F9387
:104880008C01DC01ED91FC910190F081E02D6DE057
:1048900019957C01D801ED91FC910190F081E02DFA
:1048A000C8016AE019959C012E0D3F1DC9011F9199
:1048B0000F91FF90EF900895EF92FF920F931F9347
:1048C0007C01B7DF8C01C701D7DF9C01200F311FAE
:1048D000C9011F910F91FF90EF900895CF93DF933F
:1048E000EC016115710519F420E030E00FC0DB0127
:1048F0000D900020E9F71197A61BB70BE881F9810D
:104900000280F381E02DAD0119959C01C901DF9171
:10491000CF9108954F925F927F928F929F92AF9224
:10492000BF92CF92DF92EF92FF920F931F93DF938C
:10493000CF93CDB7DEB7A1970FB6F894DEBF0FBE09
:10494000CDBF2C01742ECB01223008F42AE019A22D
:1049500031E2C32ED12CCC0EDD1E822E9924AA2446
:10496000BB24672D752FA5019401F7D779018A0122
:10497000C801B701A5019401D1D7472D461B089462
:10498000C108D1084A3014F4405D01C0495CF60109
:104990004083E114F1040105110521F07E2C5F2D07
:1049A000C801DFCFC201B60199DFA1960FB6F89416
:1049B000DEBF0FBECDBFCF91DF911F910F91FF9052
:1049C000EF90DF90CF90BF90AF909F908F907F90AF
:1049D0005F904F900895DC012115310541F4ED9170
:1049E000FC910190F081E02D642F1995089592CFEC
:1049F000CF92DF92EF92FF920F931F93CF93DF93AB
:104A0000EC016A017B012115310541F4E881F9814E
:104A10000190F081E02D642F19951DC02A303105D9
:104A2000C9F477FF16C0E881F9810190F081E02D8B
:104A30006DE219958C0144275527BA014C195D097F
:104A40006E097F09CE012AE065DF9801280F391F22
:104A500003C02AE05FDF9C01C901DF91CF911F9164
:104A60000F91FF90EF90DF90CF900895EF92FF921B
:104A70000F931F937C01BCDF8C01C701FDDE9C01FD
:104A8000200F311FC9011F910F91FF90EF900895E2
:104A9000EF92FF920F931F937B019A010027F7FC7F
:104AA0000095102FB801A701A3DF1F910F91FF9070
:104AB000EF90089513CF08957F928F929F92AF92B7
:104AC000BF92CF92DF92EF92FF920F931F93CF93FB
:104AD000DF934C017A018B01722ECB01BA01A80140
:104AE000970111D7882321F0C40166E673E01FC047
:104AF000C0E0D0E057016801E894D7F8C601B501DD
:104B00002FEF3FEF4FE75FE7FED6882349F4C6015A
:104B1000B5012FEF3FEF4FE75FE79CD4181614F075
:104B2000C1E0D0E0219731F0C4016AE673E0D6DE3F
:104B3000EC0184C0C801B7012FEF3FEF4FE75FE4FE
:104B40002DD618164CF0C801B7012FEF3FEF4FE7F5
:104B50005FEC80D4882324F4C4016EE673E0E7CFD1
:104B6000C801B70120E030E040E050E073D487FD99
:104B700003C0C0E0D0E00EC0D401ED91FC910190E3
:104B8000F081E02DC4016DE21995EC0117FB109541
:104B900017F9109520E030E040E05FE3DD240AC023
:104BA000CA01B90120E030E040E251E457D49B0152
:104BB000AC01D394D714A0F3C801B701E7D35B01CC
:104BC0006C01B9D47B018C01C401B801A7012AE0B2
:104BD00030E001DFC80FD91F772031F0C40162E750
:104BE00073E07CDEC80FD91FC801B701D0D49B0188
:104BF000AC01C601B501C9D31FC020E030E040E2DE
:104C000051E4D0D57B018C0191D45B016C01CC24A3
:104C1000B7FCC094DC2CC401B601A5012AE030E049
:104C2000E7DEC80FD91FC601B501B3D49B01AC01A3
:104C3000C801B701AAD37A947720F9F6CE01DF91A3
:104C4000CF911F910F91FF90EF90DF90CF90BF9089
:104C5000AF909F908F907F9008952ECF0895EF9200
:104C6000FF920F931F937C0127DF8C01C70104DEA5
:104C7000080F191FC8011F910F91FF90EF90089521
:104C8000EF92FF920F931F937C0128DE8C01C701E6
:104C9000F3DD080F191FC8011F910F91FF90EF90CE
:104CA0000895AF92BF92CF92DF92EF92FF920F934F
:104CB0001F93CF93DF935C016B01EE24FF24C0E0D0
:104CC000D0E00FC0D501ED91FC9100811181C601AA
:104CD000BE012BD0682FC501F8011995E80EF91E09
:104CE0002196F60184819581C817D90758F3C70129
:104CF000DF91CF911F910F91FF90EF90DF90CF90B8
:104D0000BF90AF900895EF92FF920F931F937C0195
:104D1000C8DF8C01C701B0DD9C01200F311FC90124
:104D20001F910F91FF90EF900895FC018481958170
:104D30006817790748F40190F081E02D309721F051
:104D4000E60FF71F8081089580E008950F931F9369
:104D5000CF93DF93EC018B016F5F7F4F8881998147
:104D600037D2009711F480E005C0998388831B83B4
:104D70000A8381E0DF91CF911F910F910895CF9326
:104D8000DF93EC0188819981892B29F08A819B81AD
:104D90008617970758F4CE01D9DF882341F08C811C
:104DA0009D81892B19F4E881F981108281E0DF91DE
:104DB000CF910895EF92FF920F931F93CF93DF93BC
:104DC000EC017B016C817D81E114F104B9F04115A6
:104DD000510591F08A01060F171FB801D0DF882313
:104DE00069F0888199812C813D81820F931FB701E1
:104DF0000E9401071D830C8381E001C080E0DF91E8
:104E0000CF911F910F91FF90EF900895CF93DF9373
:104E1000EC0188819981009709F042D119821882AA
:104E20001D821C821B821A82DF91CF9108950F93FD
:104E30001F93182F092FFB016081718144815581D7
:104E4000B9DF882319F4812F902FE0DF812F902F75
:104E50001F910F910895EF92FF920F931F93CF939D
:104E6000DF93EC017B018A01BA0189DF882319F401
:104E7000CE01CCDF07C01D830C8388819981B701E7
:104E80000E940107CE01DF91CF911F910F91FF90FA
:104E9000EF900895CF93DF93EC01198218821B8263
:104EA0001A821D821C821E826115710549F0DB0188
:104EB0000D900020E9F71197A61BB70BAD01CBDFD2
:104EC000DF91CF9108950F931F93182F092F61152C
:104ED000710551F0DB010D900020E9F71197A61B39
:104EE000B70BAD01B8DF01C091DF812F902F1F916B
:104EF0000F910895EF92FF920F931F93DF93CF933B
:104F0000CDB7DEB7A2970FB6F894DEBF0FBECDBF08
:104F10008C01FC011182108213821282158214828C
:104F20001682CB01BA017E010894E11CF11CA70195
:104F300030E00E940807C801B701C5DFA2960FB68E
:104F4000F894DEBF0FBECDBFCF91DF911F910F91BF
:104F5000FF90EF900895FC0180819181A1C0FC0138
:104F6000808191819DC00F931F93CF93DF93BC01EC
:104F70008230910510F462E070E0E091120CF09143
:104F8000130C40E050E0A0E0B0E024C080819181AB
:104F900086179707D0F08617970771F4828193815F
:104FA000109729F013969C938E9312972CC0909390
:104FB000130C8093120C27C04115510519F084176A
:104FC000950718F48D01AC01EF01DF018281938117
:104FD0009C01F9013097D1F641155105F9F0CA014C
:104FE000861B970B8430910580F48A819B81011583
:104FF000110521F0F8019383828304C09093130C70
:105000008093120CFE01329645C0FE01E80FF91F95
:10501000619371930297998388833CC08091100CAF
:105020009091110C892B41F480918103909182031E
:105030009093110C8093100C409183035091840342
:105040004115510541F44DB75EB780917F039091B2
:105050008003481B590B2091100C3091110C241720
:105060003507B0F4CA01821B930B8617970780F0AF
:10507000AB014E5F5F4F8417950750F0420F531FEF
:105080005093110C4093100CF9016193719302C07D
:10509000E0E0F0E0CF01DF91CF911F910F910895F3
:1050A000CF93DF939C01009709F48FC0EC01229706
:1050B0001B821A826091120C7091130C611571059C
:1050C00081F488819981820F931F2091100C309177
:1050D000110C2817390739F5D093110CC093100C17
:1050E00074C0DB0140E050E0AC17BD0708F1BB83A2
:1050F000AA83FE0121913191E20FF31FAE17BF0782
:1051000079F48D919C911197280F391F2E5F3F4F95
:105110003983288312968D919C9113979B838A8360
:105120004115510571F4D093130CC093120C4DC06E
:1051300012968D919C911397AD01009711F0DC01AF
:10514000D3CFDA011396DC93CE931297FA01219113
:105150003191E20FF31FCE17DF0769F4888199813F
:10516000280F391F2E5F3F4FFA01318320838A8138
:105170009B8193838283E0E0F0E0DB0112968D91C6
:105180009C911397009719F0BC01FD01F6CFAB017C
:105190004E5F5F4FDB018D919C91840F951F209195
:1051A000100C3091110C2817390779F4309729F435
:1051B0001092130C1092120C02C0138212824250F1
:1051C00050405093110C4093100CDF91CF910895F3
:1051D0006F927F928F929F92AF92BF92CF92DF9207
:1051E000EF92FF920F931F93CF93DF938C01009761
:1051F00021F4CB01B8DE8C01B8C08EEFE82E8FEF22
:10520000F82EE00EF11E4801860E971E8E149F04A4
:1052100008F4A9C0D7014D915C9111974617570723
:10522000B0F04530510508F4A0C0CA0104978617B4
:10523000970708F49AC042505040461B570BF401A0
:10524000419351936D937C93CF012ADF8EC05B0114
:10525000A41AB50A3801640E751EA091120CB09103
:10526000130CE0E0F0E0CC24DD2447C0A615B70520
:10527000A9F5CD91DC911197CE0102968A159B0577
:1052800068F1CE018A199B09029612962C91129709
:1052900013963C91059758F0F40122833383CA1981
:1052A000DB09D183C083D7016D937C9309C04E5F26
:1052B0005F4F4C0F5D1FF70151834083C901FC0113
:1052C000C114D10431F0D6011396FC93EE931297DA
:1052D0004CC0F093130CE093120C47C08D919C913D
:1052E0001197E817F90708F4FC016D0112968C91EB
:1052F000129713969C919C01D901109709F0B6CF93
:105300008091100C9091110C86159705E9F4E61721
:10531000F707D0F4209183033091840321153105E0
:1053200041F42DB73EB780917F0390918003281BF5
:10533000390B82169306B8F49092110C8092100CDF
:10534000F7017183608311C0CB010DDEEC01009782
:1053500051F0D7014D915C91B8010E94ED06C80152
:105360009FDE8E0102C000E010E0C801DF91CF9106
:105370001F910F91FF90EF90DF90CF90BF90AF9073
:105380009F908F907F906F9008955058BB27AA27C9
:105390000ED0B3C1A4D130F0A9D120F031F49F3F99
:1053A00011F41EF499C10EF4E095E7FB64C1E92FF6
:1053B000B5D180F3BA17620773078407950718F011
:1053C00071F49EF5E4C10EF4E0950B2EBA2FA02DDA
:1053D0000B01B90190010C01CA01A0011124FF27A2
:1053E000591B99F0593F50F4503E68F11A16F0409D
:1053F000A22F232F342F4427585FF3CF469537959C
:105400002795A795F0405395C9F77EF41F16BA0B60
:10541000620B730B840BBAF09150A1F0FF0FBB1F0E
:10542000661F771F881FC2F70EC0BA0F621F731F57
:10543000841F48F4879577956795B795F7959E3FB4
:1054400008F0B3CF9395880F08F09927EE0F979542
:1054500087950895ECD008F481E008950CD04DC1F3
:1054600045D140F03CD130F021F45F3F19F003C149
:1054700051118EC131C152D198F39923C9F35523EB
:10548000B1F3951B550BBB27AA2762177307840737
:1054900038F09F5F5F4F220F331F441FAA1FA9F3ED
:1054A00033D00E2E3AF0E0E830D091505040E695DF
:1054B000001CCAF729D0FE2F27D0660F771F881F40
:1054C000BB1F261737074807AB07B0E809F0BB0B2F
:1054D000802DBF01FF2793585F4F2AF09E3F510553
:1054E00068F0C9C055C15F3FECF3983EDCF3869588
:1054F00077956795B795F7959F5FC9F7880F911DC9
:105500009695879597F90895E1E0660F771F881FB4
:10551000BB1F621773078407BA0720F0621B730B67
:10552000840BBA0BEE1F88F7E095089504D06894B9
:10553000B1112EC10895FAD088F09F5790F0B92F7D
:105540009927B751A0F0D1F0660F771F881F991FD8
:105550001AF0BA95C9F712C0B13081F018D1B1E094
:10556000089515C1672F782F8827B85F39F0B93FA4
:10557000CCF3869577956795B395D9F73EF49095DA
:105580008095709561957F4F8F4F9F4F0895E89458
:1055900009C097FB3EF490958095709561957F4F7B
:1055A0008F4F9F4F9923A9F0F92F96E9BB27939529
:1055B000F695879577956795B795F111F8CFFAF439
:1055C000BB0F11F460FF1BC06F5F7F4F8F4F9F4F6A
:1055D00016C0882311F096E911C0772321F09EE8C8
:1055E000872F762F05C0662371F096E8862F70E02E
:1055F00060E02AF09A95660F771F881FDAF7880F08
:105600009695879597F90895ABD080F09F3740F431
:1056100091110EF0BDC060E070E080E89FEB08954E
:1056200026F41B16611D711D811D2BC045C0990FED
:105630000008550FAA0BE0E8FEEF16161706E8075C
:10564000F907C0F012161306E407F50798F0621B7D
:10565000730B840B950B39F40A2661F0232B242B52
:10566000252B21F408950A2609F4A140A6958FEF71
:10567000811D811D089597F99F6780E870E060E0C3
:105680000895882371F4772321F09850872B762F83
:1056900007C0662311F499270DC09051862B70E046
:1056A00060E02AF09A95660F771F881FDAF7880F57
:1056B0009695879597F908959F3F49F0915028F462
:1056C000869577956795B7959F5F80389F4F880F30
:1056D0009695879597F908959FEF80EC089500249B
:1056E0000A941616170618060906089500240A9447
:1056F00012161306140605060895092E0394000CCD
:1057000011F4882352F0BB0F40F4BF2B11F460FF5B
:1057100004C06F5F7F4F8F4F9F4F089557FD905884
:10572000440F551F59F05F3F71F04795880F97FB65
:10573000991F61F09F3F79F087950895121613061F
:105740001406551FF2CF4695F1DF08C0161617064E
:105750001806991FF1CF8695710561050894089583
:10576000E5DFA0F0BEE7B91788F4BB279F3860F4E7
:105770001616B11D672F782F8827985FF7CF86956B
:1057800077956795B11D93959639C8F30895E89478
:10579000BB2766277727CB0197F9089548DF08F4E0
:1057A0008FEF08950BD0A9CF9ADF28F09FDF18F074
:1057B000952309F060CF90CF1124EACFAFDFA0F39B
:1057C000959FD1F3950F50E0551F629FF001729F96
:1057D000BB27F00DB11D639FAA27F00DB11DAA1FB5
:1057E000649F6627B00DA11D661F829F2227B00D02
:1057F000A11D621F739FB00DA11D621F839FA00D8D
:10580000611D221F749F3327A00D611D231F849FDC
:10581000600D211D822F762F6A2F11249F57504033
:105820008AF0E1F088234AF0EE0FFF1FBB1F661FCE
:10583000771F881F91505040A9F79E3F510570F087
:105840001ACFA6CF5F3FECF3983EDCF386957795B1
:105850006795B795F795E7959F5FC1F7FE2B880F82
:10586000911D9695879597F9089511F40EF434CF0C
:1058700023CF5CDFD0F39923D9F3CEF39F57550B99
:1058800087FF45D056959795B0E020F4660F771FB7
:10589000881FBB1F1F930F9300249001A00180015C
:1058A000F001A0E80E0F1F1F0A1E511D601B710B97
:1058B0008009B50B48F4600F711F801DB51F0E1BCA
:1058C0001F0B0A0A510907C02E0F3F1F4A1F0E0F58
:1058D0001F1F0A1E511D660F771F881FBB1FA6952D
:1058E000F795E795F8F60617170708065B07211DD9
:1058F000311D411D0F911F91B901842F9158880FBF
:1059000096958795089593DE880B990B089591508D
:105910005040660F771F881FD2F70895629FD0010D
:10592000739FF001829FE00DF11D649FE00DF11D5A
:10593000929FF00D839FF00D749FF00D659FF00D09
:105940009927729FB00DE11DF91F639FB00DE11DF6
:10595000F91FBD01CF0111240895A1E21A2EAA1B3F
:10596000BB1BFD010DC0AA1FBB1FEE1FFF1FA2170F
:10597000B307E407F50720F0A21BB30BE40BF50B0C
:10598000661F771F881F991F1A9469F76095709595
:10599000809590959B01AC01BD01CF010895EE0F5C
:1059A000FF1F0590F491E02D1994911106C08032EB
:1059B00019F089508550D0F70895992788270895C0
:1059C0002F923F924F925F926F927F928F929F920F
:1059D000AF92BF92CF92DF92EF92FF920F931F93FD
:1059E000CF93DF93CDB7DEB7CA1BDB0B0FB6F894AE
:1059F000DEBF0FBECDBF19942A88398848885F84DE
:105A00006E847D848C849B84AA84B984C884DF805E
:105A1000EE80FD800C811B81AA81B981CE0FD11D42
:105A20000FB6F894DEBF0FBECDBFED010895F89418
:025A3000FFCFA6
:105A32004553746F70206765742070757368656470
:105A42002E006C6173745374657031206265666FE9
:105A5200726520726563616C63756C6174653A008E
:105A62006C6173745374657031206E6F773A2000E5
:105A7200737461727420746F2072756E206E657813
:105A8200742063616C694C696E655F736D616C6CE7
:105A920028292E0066696E6973682072756E206E01
:105AA2006578742063616C694C696E655F736D61C2
:105AB2006C6C28292E0043616C6962726174696F93
:105AC2006E2066696E6973636865642E00583A00D9
:105AD2006D6D20593A006D6D205A3A006D6D204669
